000000000111000000001AAA                           D
000000000211000000002AAB                           I
000000000311000000003AAC                           B
000000000411000000025AAD                           B
000000000711000000007AAG                           I
000000000811000000008AAH                           B
000000000911000000009AAI                           A
000000001011000000010AAL                           A
000000001111000000011AAM                           A
000000002111000000021AAW                           A
000000002311000000023AAY                           I
000000002511000000025ABA                           B
000000002711000000027ABC                           D